{
  "contractName": "FLTask",
  "abi": [
    {
      "inputs": [],
      "stateMutability": "nonpayable",
      "type": "constructor"
    },
    {
      "inputs": [],
      "name": "requester",
      "outputs": [
        {
          "internalType": "address",
          "name": "",
          "type": "address"
        }
      ],
      "stateMutability": "view",
      "type": "function",
      "constant": true
    },
    {
      "inputs": [],
      "name": "taskStatus",
      "outputs": [
        {
          "internalType": "enum FLTask.TaskStatus",
          "name": "",
          "type": "uint8"
        }
      ],
      "stateMutability": "view",
      "type": "function",
      "constant": true
    },
    {
      "inputs": [
        {
          "internalType": "string",
          "name": "_modelURI",
          "type": "string"
        },
        {
          "internalType": "uint8",
          "name": "_numRounds",
          "type": "uint8"
        }
      ],
      "name": "initializeTask",
      "outputs": [],
      "stateMutability": "payable",
      "type": "function",
      "payable": true
    },
    {
      "inputs": [],
      "name": "startTask",
      "outputs": [],
      "stateMutability": "nonpayable",
      "type": "function"
    },
    {
      "inputs": [],
      "name": "nextRound",
      "outputs": [],
      "stateMutability": "nonpayable",
      "type": "function"
    },
    {
      "inputs": [],
      "name": "getRound",
      "outputs": [
        {
          "internalType": "uint8",
          "name": "",
          "type": "uint8"
        }
      ],
      "stateMutability": "view",
      "type": "function",
      "constant": true
    },
    {
      "inputs": [],
      "name": "getNumWorkers",
      "outputs": [
        {
          "internalType": "uint8",
          "name": "",
          "type": "uint8"
        }
      ],
      "stateMutability": "view",
      "type": "function",
      "constant": true
    },
    {
      "inputs": [],
      "name": "getDeposit",
      "outputs": [
        {
          "internalType": "uint256",
          "name": "",
          "type": "uint256"
        }
      ],
      "stateMutability": "view",
      "type": "function",
      "constant": true
    },
    {
      "inputs": [],
      "name": "getRequester",
      "outputs": [
        {
          "internalType": "address",
          "name": "",
          "type": "address"
        }
      ],
      "stateMutability": "view",
      "type": "function",
      "constant": true
    },
    {
      "inputs": [],
      "name": "getModelURI",
      "outputs": [
        {
          "internalType": "string",
          "name": "",
          "type": "string"
        }
      ],
      "stateMutability": "view",
      "type": "function",
      "constant": true
    },
    {
      "inputs": [],
      "name": "joinTask",
      "outputs": [
        {
          "internalType": "string",
          "name": "",
          "type": "string"
        }
      ],
      "stateMutability": "nonpayable",
      "type": "function"
    },
    {
      "inputs": [],
      "name": "removeWorker",
      "outputs": [],
      "stateMutability": "nonpayable",
      "type": "function"
    },
    {
      "inputs": [
        {
          "internalType": "address[]",
          "name": "_workers",
          "type": "address[]"
        },
        {
          "internalType": "uint16[]",
          "name": "_scores",
          "type": "uint16[]"
        }
      ],
      "name": "submitScore",
      "outputs": [],
      "stateMutability": "nonpayable",
      "type": "function"
    },
    {
      "inputs": [],
      "name": "getSubmissionsNumber",
      "outputs": [
        {
          "internalType": "uint8",
          "name": "",
          "type": "uint8"
        }
      ],
      "stateMutability": "view",
      "type": "function",
      "constant": true
    },
    {
      "inputs": [],
      "name": "getSubmissions",
      "outputs": [
        {
          "components": [
            {
              "internalType": "address",
              "name": "workerAddress",
              "type": "address"
            },
            {
              "internalType": "address[]",
              "name": "addressScored",
              "type": "address[]"
            },
            {
              "internalType": "uint16[]",
              "name": "scores",
              "type": "uint16[]"
            }
          ],
          "internalType": "struct FLTask.SubmittedEval[]",
          "name": "",
          "type": "tuple[]"
        }
      ],
      "stateMutability": "view",
      "type": "function",
      "constant": true
    },
    {
      "inputs": [
        {
          "internalType": "address[]",
          "name": "_topK",
          "type": "address[]"
        }
      ],
      "name": "submitRoundTopK",
      "outputs": [],
      "stateMutability": "nonpayable",
      "type": "function"
    },
    {
      "inputs": [],
      "name": "distributeRewards",
      "outputs": [],
      "stateMutability": "payable",
      "type": "function",
      "payable": true
    }
  ],
  "bytecode": "0x60a060405260008060026101000a81548160ff021916908360ff16021790555034801561002b57600080fd5b503373ffffffffffffffffffffffffffffffffffffffff1660808173ffffffffffffffffffffffffffffffffffffffff16815250506000600660006101000a81548160ff0219169083600481111561008657610085610090565b5b02179055506100bf565b7f4e487b7100000000000000000000000000000000000000000000000000000000600052602160045260246000fd5b6080516128b162000128600039600081816105590152818161063001528181610783015281816108bf01528181610bf601528181610ec401528181611080015281816112a10152818161136b0152818161145701528181611578015261159e01526128b16000f3fe6080604052600436106100fe5760003560e01c8063965076a811610095578063bbbb77fb11610064578063bbbb77fb146102ad578063c399ec88146102c4578063c7e0758f146102ef578063cd1e07171461031a578063d5964a4814610345576100fe565b8063965076a8146102015780639f8743f71461022c578063a59aa9de14610257578063b61e96a514610282576100fe565b806347e40553116100d157806347e405531461018a57806354f6aa20146101a15780636f4a2cd0146101cc578063852649c5146101d6576100fe565b80630961bc68146101035780631601e7951461012c5780632563d4b7146101575780632f89c48a1461016e575b600080fd5b34801561010f57600080fd5b5061012a60048036038101906101259190611c04565b61036e565b005b34801561013857600080fd5b50610141610544565b60405161014e9190611cf3565b60405180910390f35b34801561016357600080fd5b5061016c610557565b005b61018860048036038101906101839190611dfc565b61062e565b005b34801561019657600080fd5b5061019f610781565b005b3480156101ad57600080fd5b506101b66108bb565b6040516101c391906120ed565b60405180910390f35b6101d4610bf4565b005b3480156101e257600080fd5b506101eb610ec0565b6040516101f8919061211e565b60405180910390f35b34801561020d57600080fd5b50610216610f5b565b604051610223919061211e565b60405180910390f35b34801561023857600080fd5b50610241610f71565b60405161024e919061211e565b60405180910390f35b34801561026357600080fd5b5061026c610fec565b60405161027991906121c1565b60405180910390f35b34801561028e57600080fd5b5061029761129f565b6040516102a491906121f2565b60405180910390f35b3480156102b957600080fd5b506102c26112c3565b005b3480156102d057600080fd5b506102d9611367565b6040516102e69190612226565b60405180910390f35b3480156102fb57600080fd5b506103046113fd565b60405161031191906121c1565b60405180910390f35b34801561032657600080fd5b5061032f611574565b60405161033c91906121f2565b60405180910390f35b34801561035157600080fd5b5061036c60048036038101906103679190612241565b61159c565b005b600160003373ffffffffffffffffffffffffffffffffffffffff1673ffffffffffffffffffffffffffffffffffffffff16815260200190815260200160002060000160009054906101000a900460ff166103fd576040517f08c379a00000000000000000000000000000000000000000000000000000000081526004016103f4906122fc565b60405180910390fd5b6002600660009054906101000a900460ff16600481111561042157610420611c7c565b5b14610461576040517f08c379a000000000000000000000000000000000000000000000000000000000815260040161045890612368565b60405180910390fd5b600260405180606001604052803373ffffffffffffffffffffffffffffffffffffffff16815260200184815260200183815250908060018154018082558091505060019003906000526020600020906003020160009091909190915060008201518160000160006101000a81548173ffffffffffffffffffffffffffffffffffffffff021916908373ffffffffffffffffffffffffffffffffffffffff1602179055506020820151816001019080519060200190610520929190611644565b50604082015181600201908051906020019061053d9291906116ce565b5050505050565b600660009054906101000a900460ff1681565b7f000000000000000000000000000000000000000000000000000000000000000073ffffffffffffffffffffffffffffffffffffffff163373ffffffffffffffffffffffffffffffffffffffff16146105e5576040517f08c379a00000000000000000000000000000000000000000000000000000000081526004016105dc906123fa565b60405180910390fd5b6002600660006101000a81548160ff0219169083600481111561060b5761060a611c7c565b5b02179055506001600060016101000a81548160ff021916908360ff160217905550565b7f000000000000000000000000000000000000000000000000000000000000000073ffffffffffffffffffffffffffffffffffffffff163373ffffffffffffffffffffffffffffffffffffffff16146106bc576040517f08c379a00000000000000000000000000000000000000000000000000000000081526004016106b3906123fa565b60405180910390fd5b600034036106ff576040517f08c379a00000000000000000000000000000000000000000000000000000000081526004016106f69061248c565b60405180910390fd5b8160049080519060200190610715929190611778565b50806000806101000a81548160ff021916908360ff16021790555060008054906101000a900460ff1660ff163461074c919061250a565b6005819055506001600660006101000a81548160ff0219169083600481111561077857610777611c7c565b5b02179055505050565b7f000000000000000000000000000000000000000000000000000000000000000073ffffffffffffffffffffffffffffffffffffffff163373ffffffffffffffffffffffffffffffffffffffff161461080f576040517f08c379a0000000000000000000000000000000000000000000000000000000008152600401610806906123fa565b60405180910390fd5b6002600660009054906101000a900460ff16600481111561083357610832611c7c565b5b14610873576040517f08c379a000000000000000000000000000000000000000000000000000000000815260040161086a90612368565b60405180910390fd5b6002600061088191906117fe565b6000600181819054906101000a900460ff16809291906108a09061253b565b91906101000a81548160ff021916908360ff16021790555050565b60607f000000000000000000000000000000000000000000000000000000000000000073ffffffffffffffffffffffffffffffffffffffff163373ffffffffffffffffffffffffffffffffffffffff161461094b576040517f08c379a0000000000000000000000000000000000000000000000000000000008152600401610942906123fa565b60405180910390fd5b6002600660009054906101000a900460ff16600481111561096f5761096e611c7c565b5b146109af576040517f08c379a00000000000000000000000000000000000000000000000000000000081526004016109a690612368565b60405180910390fd5b60006109b9610ec0565b60ff1667ffffffffffffffff8111156109d5576109d4611966565b5b604051908082528060200260200182016040528015610a0e57816020015b6109fb611822565b8152602001906001900390816109f35790505b50905060005b6002805490508160ff161015610bec5760028160ff1681548110610a3b57610a3a612564565b5b90600052602060002090600302016040518060600160405290816000820160009054906101000a900473ffffffffffffffffffffffffffffffffffffffff1673ffffffffffffffffffffffffffffffffffffffff1673ffffffffffffffffffffffffffffffffffffffff16815260200160018201805480602002602001604051908101604052809291908181526020018280548015610b2f57602002820191906000526020600020905b8160009054906101000a900473ffffffffffffffffffffffffffffffffffffffff1673ffffffffffffffffffffffffffffffffffffffff1681526020019060010190808311610ae5575b5050505050815260200160028201805480602002602001604051908101604052809291908181526020018280548015610baf57602002820191906000526020600020906000905b82829054906101000a900461ffff1661ffff1681526020019060020190602082600101049283019260010382029150808411610b765790505b505050505081525050828260ff1681518110610bce57610bcd612564565b5b60200260200101819052508080610be49061253b565b915050610a14565b508091505090565b7f000000000000000000000000000000000000000000000000000000000000000073ffffffffffffffffffffffffffffffffffffffff163373ffffffffffffffffffffffffffffffffffffffff1614610c82576040517f08c379a0000000000000000000000000000000000000000000000000000000008152600401610c79906123fa565b60405180910390fd5b600060055490506000600380549050905060005b600382610ca39190612593565b60ff168160ff161015610d665760038160ff1681548110610cc757610cc6612564565b5b9060005260206000200160009054906101000a900473ffffffffffffffffffffffffffffffffffffffff1673ffffffffffffffffffffffffffffffffffffffff166108fc600285610d18919061250a565b9081150290604051600060405180830381858888f19350505050158015610d43573d6000803e3d6000fd5b50600283610d51919061250a565b92508080610d5e9061253b565b915050610c96565b600283610d73919061250a565b925060008260ff1684610d86919061250a565b905060038260ff1681548110610d9f57610d9e612564565b5b9060005260206000200160009054906101000a900473ffffffffffffffffffffffffffffffffffffffff1673ffffffffffffffffffffffffffffffffffffffff166108fc8286610def91906125c7565b9081150290604051600060405180830381858888f19350505050158015610e1a573d6000803e3d6000fd5b506003600183610e2a919061261d565b60ff1681548110610e3e57610e3d612564565b5b9060005260206000200160009054906101000a900473ffffffffffffffffffffffffffffffffffffffff1673ffffffffffffffffffffffffffffffffffffffff166108fc8286610e8e9190612654565b9081150290604051600060405180830381858888f19350505050158015610eb9573d6000803e3d6000fd5b5050505050565b60007f000000000000000000000000000000000000000000000000000000000000000073ffffffffffffffffffffffffffffffffffffffff163373ffffffffffffffffffffffffffffffffffffffff1614610f50576040517f08c379a0000000000000000000000000000000000000000000000000000000008152600401610f47906123fa565b60405180910390fd5b600280549050905090565b60008060029054906101000a900460ff16905090565b60006002600660009054906101000a900460ff166004811115610f9757610f96611c7c565b5b14610fd7576040517f08c379a0000000000000000000000000000000000000000000000000000000008152600401610fce90612368565b60405180910390fd5b600060019054906101000a900460ff16905090565b6060600160003373ffffffffffffffffffffffffffffffffffffffff1673ffffffffffffffffffffffffffffffffffffffff16815260200190815260200160002060000160009054906101000a900460ff161561107e576040517f08c379a0000000000000000000000000000000000000000000000000000000008152600401611075906126d4565b60405180910390fd5b7f000000000000000000000000000000000000000000000000000000000000000073ffffffffffffffffffffffffffffffffffffffff163373ffffffffffffffffffffffffffffffffffffffff160361110c576040517f08c379a000000000000000000000000000000000000000000000000000000000815260040161110390612740565b60405180910390fd5b611114611859565b60018160000190151590811515815250506001600060029054906101000a900460ff16611141919061261d565b816020019060ff16908160ff168152505080600160003373ffffffffffffffffffffffffffffffffffffffff1673ffffffffffffffffffffffffffffffffffffffff16815260200190815260200160002060008201518160000160006101000a81548160ff02191690831515021790555060208201518160000160016101000a81548160ff021916908360ff1602179055509050506000600281819054906101000a900460ff16809291906111f59061253b565b91906101000a81548160ff021916908360ff160217905550506004805461121b9061278f565b80601f01602080910402602001604051908101604052809291908181526020018280546112479061278f565b80156112945780601f1061126957610100808354040283529160200191611294565b820191906000526020600020905b81548152906001019060200180831161127757829003601f168201915b505050505091505090565b7f000000000000000000000000000000000000000000000000000000000000000081565b600160003373ffffffffffffffffffffffffffffffffffffffff1673ffffffffffffffffffffffffffffffffffffffff168152602001908152602001600020600080820160006101000a81549060ff02191690556000820160016101000a81549060ff021916905550506000600281819054906101000a900460ff168092919061134c906127c0565b91906101000a81548160ff021916908360ff16021790555050565b60007f000000000000000000000000000000000000000000000000000000000000000073ffffffffffffffffffffffffffffffffffffffff163373ffffffffffffffffffffffffffffffffffffffff16146113f7576040517f08c379a00000000000000000000000000000000000000000000000000000000081526004016113ee906123fa565b60405180910390fd5b47905090565b6060600160003373ffffffffffffffffffffffffffffffffffffffff1673ffffffffffffffffffffffffffffffffffffffff16815260200190815260200160002060000160009054906101000a900460ff16806114a557507f000000000000000000000000000000000000000000000000000000000000000073ffffffffffffffffffffffffffffffffffffffff163373ffffffffffffffffffffffffffffffffffffffff16145b6114e4576040517f08c379a00000000000000000000000000000000000000000000000000000000081526004016114db9061285b565b60405180910390fd5b600480546114f19061278f565b80601f016020809104026020016040519081016040528092919081815260200182805461151d9061278f565b801561156a5780601f1061153f5761010080835404028352916020019161156a565b820191906000526020600020905b81548152906001019060200180831161154d57829003601f168201915b5050505050905090565b60007f0000000000000000000000000000000000000000000000000000000000000000905090565b7f000000000000000000000000000000000000000000000000000000000000000073ffffffffffffffffffffffffffffffffffffffff163373ffffffffffffffffffffffffffffffffffffffff161461162a576040517f08c379a0000000000000000000000000000000000000000000000000000000008152600401611621906123fa565b60405180910390fd5b8060039080519060200190611640929190611644565b5050565b8280548282559060005260206000209081019282156116bd579160200282015b828111156116bc5782518260006101000a81548173ffffffffffffffffffffffffffffffffffffffff021916908373ffffffffffffffffffffffffffffffffffffffff16021790555091602001919060010190611664565b5b5090506116ca9190611878565b5090565b82805482825590600052602060002090600f016010900481019282156117675791602002820160005b8382111561173757835183826101000a81548161ffff021916908361ffff16021790555092602001926002016020816001010492830192600103026116f7565b80156117655782816101000a81549061ffff0219169055600201602081600101049283019260010302611737565b505b5090506117749190611878565b5090565b8280546117849061278f565b90600052602060002090601f0160209004810192826117a657600085556117ed565b82601f106117bf57805160ff19168380011785556117ed565b828001600101855582156117ed579182015b828111156117ec5782518255916020019190600101906117d1565b5b5090506117fa9190611878565b5090565b508054600082556003029060005260206000209081019061181f9190611895565b50565b6040518060600160405280600073ffffffffffffffffffffffffffffffffffffffff16815260200160608152602001606081525090565b6040518060400160405280600015158152602001600060ff1681525090565b5b80821115611891576000816000905550600101611879565b5090565b5b808211156118ef57600080820160006101000a81549073ffffffffffffffffffffffffffffffffffffffff02191690556001820160006118d691906118f3565b6002820160006118e69190611914565b50600301611896565b5090565b50805460008255906000526020600020908101906119119190611878565b50565b50805460008255600f0160109004906000526020600020908101906119399190611878565b50565b6000604051905090565b600080fd5b600080fd5b600080fd5b6000601f19601f8301169050919050565b7f4e487b7100000000000000000000000000000000000000000000000000000000600052604160045260246000fd5b61199e82611955565b810181811067ffffffffffffffff821117156119bd576119bc611966565b5b80604052505050565b60006119d061193c565b90506119dc8282611995565b919050565b600067ffffffffffffffff8211156119fc576119fb611966565b5b602082029050602081019050919050565b600080fd5b600073ffffffffffffffffffffffffffffffffffffffff82169050919050565b6000611a3d82611a12565b9050919050565b611a4d81611a32565b8114611a5857600080fd5b50565b600081359050611a6a81611a44565b92915050565b6000611a83611a7e846119e1565b6119c6565b90508083825260208201905060208402830185811115611aa657611aa5611a0d565b5b835b81811015611acf5780611abb8882611a5b565b845260208401935050602081019050611aa8565b5050509392505050565b600082601f830112611aee57611aed611950565b5b8135611afe848260208601611a70565b91505092915050565b600067ffffffffffffffff821115611b2257611b21611966565b5b602082029050602081019050919050565b600061ffff82169050919050565b611b4a81611b33565b8114611b5557600080fd5b50565b600081359050611b6781611b41565b92915050565b6000611b80611b7b84611b07565b6119c6565b90508083825260208201905060208402830185811115611ba357611ba2611a0d565b5b835b81811015611bcc5780611bb88882611b58565b845260208401935050602081019050611ba5565b5050509392505050565b600082601f830112611beb57611bea611950565b5b8135611bfb848260208601611b6d565b91505092915050565b60008060408385031215611c1b57611c1a611946565b5b600083013567ffffffffffffffff811115611c3957611c3861194b565b5b611c4585828601611ad9565b925050602083013567ffffffffffffffff811115611c6657611c6561194b565b5b611c7285828601611bd6565b9150509250929050565b7f4e487b7100000000000000000000000000000000000000000000000000000000600052602160045260246000fd5b60058110611cbc57611cbb611c7c565b5b50565b6000819050611ccd82611cab565b919050565b6000611cdd82611cbf565b9050919050565b611ced81611cd2565b82525050565b6000602082019050611d086000830184611ce4565b92915050565b600080fd5b600067ffffffffffffffff821115611d2e57611d2d611966565b5b611d3782611955565b9050602081019050919050565b82818337600083830152505050565b6000611d66611d6184611d13565b6119c6565b905082815260208101848484011115611d8257611d81611d0e565b5b611d8d848285611d44565b509392505050565b600082601f830112611daa57611da9611950565b5b8135611dba848260208601611d53565b91505092915050565b600060ff82169050919050565b611dd981611dc3565b8114611de457600080fd5b50565b600081359050611df681611dd0565b92915050565b60008060408385031215611e1357611e12611946565b5b600083013567ffffffffffffffff811115611e3157611e3061194b565b5b611e3d85828601611d95565b9250506020611e4e85828601611de7565b9150509250929050565b600081519050919050565b600082825260208201905092915050565b6000819050602082019050919050565b611e8d81611a32565b82525050565b600081519050919050565b600082825260208201905092915050565b6000819050602082019050919050565b6000611ecb8383611e84565b60208301905092915050565b6000602082019050919050565b6000611eef82611e93565b611ef98185611e9e565b9350611f0483611eaf565b8060005b83811015611f35578151611f1c8882611ebf565b9750611f2783611ed7565b925050600181019050611f08565b5085935050505092915050565b600081519050919050565b600082825260208201905092915050565b6000819050602082019050919050565b611f7781611b33565b82525050565b6000611f898383611f6e565b60208301905092915050565b6000602082019050919050565b6000611fad82611f42565b611fb78185611f4d565b9350611fc283611f5e565b8060005b83811015611ff3578151611fda8882611f7d565b9750611fe583611f95565b925050600181019050611fc6565b5085935050505092915050565b60006060830160008301516120186000860182611e84565b50602083015184820360208601526120308282611ee4565b9150506040830151848203604086015261204a8282611fa2565b9150508091505092915050565b60006120638383612000565b905092915050565b6000602082019050919050565b600061208382611e58565b61208d8185611e63565b93508360208202850161209f85611e74565b8060005b858110156120db57848403895281516120bc8582612057565b94506120c78361206b565b925060208a019950506001810190506120a3565b50829750879550505050505092915050565b600060208201905081810360008301526121078184612078565b905092915050565b61211881611dc3565b82525050565b6000602082019050612133600083018461210f565b92915050565b600081519050919050565b600082825260208201905092915050565b60005b83811015612173578082015181840152602081019050612158565b83811115612182576000848401525b50505050565b600061219382612139565b61219d8185612144565b93506121ad818560208601612155565b6121b681611955565b840191505092915050565b600060208201905081810360008301526121db8184612188565b905092915050565b6121ec81611a32565b82525050565b600060208201905061220760008301846121e3565b92915050565b6000819050919050565b6122208161220d565b82525050565b600060208201905061223b6000830184612217565b92915050565b60006020828403121561225757612256611946565b5b600082013567ffffffffffffffff8111156122755761227461194b565b5b61228184828501611ad9565b91505092915050565b7f54686973206f7065726174696f6e2063616e20626520706572666f726d65642060008201527f6f6e6c7920627920746865207461736b20776f726b6572730000000000000000602082015250565b60006122e6603883612144565b91506122f18261228a565b604082019050919050565b60006020820190508181036000830152612315816122d9565b9050919050565b7f5461736b206e6f742072756e6e696e6700000000000000000000000000000000600082015250565b6000612352601083612144565b915061235d8261231c565b602082019050919050565b6000602082019050818103600083015261238181612345565b9050919050565b7f54686973206f7065726174696f6e2063616e20626520706572666f726d65642060008201527f6f6e6c7920627920746865207461736b20726571756573746572000000000000602082015250565b60006123e4603a83612144565b91506123ef82612388565b604082019050919050565b60006020820190508181036000830152612413816123d7565b9050919050565b7f43616e6e6f7420696e697469616c697a6520636f6e747261637420776974686f60008201527f7574206465706f73697400000000000000000000000000000000000000000000602082015250565b6000612476602a83612144565b91506124818261241a565b604082019050919050565b600060208201905081810360008301526124a581612469565b9050919050565b7f4e487b7100000000000000000000000000000000000000000000000000000000600052601260045260246000fd5b7f4e487b7100000000000000000000000000000000000000000000000000000000600052601160045260246000fd5b60006125158261220d565b91506125208361220d565b9250826125305761252f6124ac565b5b828204905092915050565b600061254682611dc3565b915060ff8203612559576125586124db565b5b600182019050919050565b7f4e487b7100000000000000000000000000000000000000000000000000000000600052603260045260246000fd5b600061259e82611dc3565b91506125a983611dc3565b9250828210156125bc576125bb6124db565b5b828203905092915050565b60006125d28261220d565b91506125dd8361220d565b9250827fffffffffffffffffffffffffffffffffffffffffffffffffffffffffffffffff03821115612612576126116124db565b5b828201905092915050565b600061262882611dc3565b915061263383611dc3565b92508260ff03821115612649576126486124db565b5b828201905092915050565b600061265f8261220d565b915061266a8361220d565b92508282101561267d5761267c6124db565b5b828203905092915050565b7f576f726b657220697320616c7265616479207265676973746572656400000000600082015250565b60006126be601c83612144565b91506126c982612688565b602082019050919050565b600060208201905081810360008301526126ed816126b1565b9050919050565b7f5265717565737465722063616e6e6f74206265206120776f726b657221000000600082015250565b600061272a601d83612144565b9150612735826126f4565b602082019050919050565b600060208201905081810360008301526127598161271d565b9050919050565b7f4e487b7100000000000000000000000000000000000000000000000000000000600052602260045260246000fd5b600060028204905060018216806127a757607f821691505b6020821081036127ba576127b9612760565b5b50919050565b60006127cb82611dc3565b9150600082036127de576127dd6124db565b5b600182039050919050565b7f596f7520646f206e6f742068617665207468652072696768747320746f20706560008201527f72666f726d2074686973206f7065726174696f6e000000000000000000000000602082015250565b6000612845603483612144565b9150612850826127e9565b604082019050919050565b6000602082019050818103600083015261287481612838565b905091905056fea2646970667358221220d1df70a048df650f884d9e7496bd2757ac9bc94449a11bf6c9e1933c98c1616c64736f6c634300080d0033",
  "immutableReferences": {
    "42": [
      {
        "length": 32,
        "start": 1369
      },
      {
        "length": 32,
        "start": 1584
      },
      {
        "length": 32,
        "start": 1923
      },
      {
        "length": 32,
        "start": 2239
      },
      {
        "length": 32,
        "start": 3062
      },
      {
        "length": 32,
        "start": 3780
      },
      {
        "length": 32,
        "start": 4224
      },
      {
        "length": 32,
        "start": 4769
      },
      {
        "length": 32,
        "start": 4971
      },
      {
        "length": 32,
        "start": 5207
      },
      {
        "length": 32,
        "start": 5496
      },
      {
        "length": 32,
        "start": 5534
      }
    ]
  },
  "source": "// SPDX-License-Identifier: MIT\npragma solidity >=0.4.22 <0.9.0;\n\n// Smart contract representing a FL task\ncontract FLTask {\n    // Representing the status of the task\n    // Pending: invalid status, created when the smart contract is deployed\n    // Initialized: the task is ready to be joined by workers\n    // Running, Completed, Canceled: self-explanatory\n    enum TaskStatus {    \n        Pending, \n        Initialized, \n        Running,\n        Completed,\n        Canceled\n    }\n\n    //Struct representing a wokrer of the task, still under development\n    //the boolean field is used to verify that a worker cannot join the task twice\n    struct Worker {\n        bool registered;\n        uint8 workerId;\n    }\n\n    //struct representing the evaluation submitted by a worker at the end of the evaluation phase\n    struct SubmittedEval {\n        address workerAddress;\n        address[] addressScored;\n        uint16[] scores;\n        //uint16 score; //only for testing\n    }\n\n    \n    uint8 private numRounds; //number of rounds of the fl task\n    uint8 private round; //number of the actual round\n    uint8 private numWorkers = 0;\n    mapping(address => Worker) private workers; //to each worker address is associated his worker object\n    SubmittedEval[] private roundScores; //to each round are associated the submitted evaluations\n    address[] private roundTopK;\n    address public immutable requester;\n    string private modelURI; //URI of the model pushed by the requester at initialization phase\n    uint256 roundMoney;\n    TaskStatus public taskStatus;\n\n    constructor() {\n        requester = msg.sender;\n        taskStatus = TaskStatus.Pending;\n    }\n\n    // function modifier allowing the function to be called only by the requester\n    modifier onlyRequester() {\n        require(msg.sender == requester, \"This operation can be performed only by the task requester\");\n        _;\n    }\n\n    // function modifier allowing the function to be called only by the workers\n    modifier onlyWorker() {\n        require(workers[msg.sender].registered, \"This operation can be performed only by the task workers\");\n        _;\n    }\n\n    // function modifier allowing the function to be called only by requester and workers\n    modifier restrictAccess() {\n        require((workers[msg.sender].registered || msg.sender == requester), \"You do not have the rights to perform this operation\");\n        _;\n    }\n\n    // function modifier allowing the function to be called only if the task has been initialized\n    modifier taskInitialized(){\n        require(uint(taskStatus) == 1, \"Task not initialized\");\n        _;\n    }\n\n    // function modifier allowing the function to be called only if the task has started\n    modifier taskRunning(){\n        require(uint(taskStatus) == 2, \"Task not running\");\n        _;\n    }\n\n    // function called to initialize the task, mandatory to put a deposit in the smart contract\n    function initializeTask(string memory _modelURI, uint8 _numRounds) public payable onlyRequester{\n        require(msg.value != 0, \"Cannot initialize contract without deposit\");\n        modelURI = _modelURI;\n        numRounds = _numRounds;\n        roundMoney = msg.value / numRounds;\n        taskStatus = TaskStatus.Initialized;\n    }\n\n    // start the task\n    function startTask() public onlyRequester {\n        taskStatus = TaskStatus.Running;\n        round = 1;\n    }\n\n    // advance round\n    function nextRound() public onlyRequester taskRunning {\n        delete roundScores;\n        round++;\n    }\n\n    // get the number of actual round\n    function getRound() public taskRunning view returns (uint8){\n        return round;\n    }\n\n    // get the number of workers\n    function getNumWorkers() public view returns (uint8){\n        return numWorkers;\n    }\n\n    // get the amount of money deposited in the smart contract\n    function getDeposit() public onlyRequester view returns (uint) {\n        return address(this).balance;\n    }\n\n    // get the address of the requester\n    function getRequester() public view returns (address){\n        return requester;\n    }\n\n    // get the URI of the model\n    function getModelURI() public view restrictAccess returns (string memory){\n        return modelURI;\n    }\n\n    function joinTask() public  returns (string memory) {\n        require(!workers[msg.sender].registered, \"Worker is already registered\");\n        require(msg.sender != requester, \"Requester cannot be a worker!\");\n        Worker memory worker;\n        worker.registered = true;\n        worker.workerId = numWorkers + 1;\n        workers[msg.sender] = worker;\n        numWorkers++;\n        return modelURI;\n    }\n\n    function removeWorker() public {\n        delete workers[msg.sender];\n        numWorkers--;\n    }\n\n    function submitScore(address[] memory _workers, uint16[] memory _scores) public onlyWorker taskRunning {\n        roundScores.push(SubmittedEval({\n            workerAddress: msg.sender,\n            addressScored: _workers,\n            scores: _scores\n        }));\n    }\n\n    function getSubmissionsNumber() public onlyRequester view returns (uint8){\n        return uint8(roundScores.length);\n    }\n\n    function getSubmissions() public onlyRequester taskRunning view returns (SubmittedEval[] memory) {\n        SubmittedEval[] memory evals = new SubmittedEval[](getSubmissionsNumber());\n        for (uint8 i = 0; i < roundScores.length; i++){\n            evals[i] = roundScores[i];\n        }\n        return evals;\n    }\n\n    function submitRoundTopK(address[] memory _topK) public onlyRequester {\n        roundTopK = _topK;\n    }\n\n    function distributeRewards() public onlyRequester payable {\n        uint256 amountToDistribute = roundMoney;\n        uint8 usersToReward = uint8(roundTopK.length);\n        uint8 usersRewarded;\n        for(usersRewarded = 0; usersRewarded < usersToReward-3; usersRewarded++){\n            payable(roundTopK[usersRewarded]).transfer(amountToDistribute / 2);\n            amountToDistribute = amountToDistribute / 2;\n        }\n        amountToDistribute = amountToDistribute / 2;\n        uint256 finalPortion = amountToDistribute / usersToReward;\n        payable(roundTopK[usersRewarded]).transfer(amountToDistribute + finalPortion);\n        payable(roundTopK[usersRewarded + 1]).transfer(amountToDistribute - finalPortion);\n    }\n}\n",
  "sourcePath": "/home/developer/Downloads/FLBLC/FLBLC/client/contracts/FLTask.sol",
  "compiler": {
    "name": "solc",
    "version": "0.8.13+commit.abaa5c0e.Emscripten.clang"
  },
  "schemaVersion": "3.4.14",
  "updatedAt": "2023-07-19T15:51:45.565Z",
  "networkType": "ethereum",
  "devdoc": {
    "kind": "dev",
    "methods": {},
    "version": 1
  },
  "userdoc": {
    "kind": "user",
    "methods": {},
    "version": 1
  }
}