{
  "contractName": "FLTask",
  "abi": [
    {
      "inputs": [],
      "stateMutability": "nonpayable",
      "type": "constructor"
    },
    {
      "inputs": [],
      "name": "requester",
      "outputs": [
        {
          "internalType": "address",
          "name": "",
          "type": "address"
        }
      ],
      "stateMutability": "view",
      "type": "function",
      "constant": true
    },
    {
      "inputs": [],
      "name": "taskStatus",
      "outputs": [
        {
          "internalType": "enum FLTask.TaskStatus",
          "name": "",
          "type": "uint8"
        }
      ],
      "stateMutability": "view",
      "type": "function",
      "constant": true
    },
    {
      "inputs": [
        {
          "internalType": "string",
          "name": "_modelURI",
          "type": "string"
        },
        {
          "internalType": "uint8",
          "name": "_numRounds",
          "type": "uint8"
        }
      ],
      "name": "initializeTask",
      "outputs": [],
      "stateMutability": "payable",
      "type": "function",
      "payable": true
    },
    {
      "inputs": [],
      "name": "startTask",
      "outputs": [],
      "stateMutability": "nonpayable",
      "type": "function"
    },
    {
      "inputs": [],
      "name": "nextRound",
      "outputs": [],
      "stateMutability": "nonpayable",
      "type": "function"
    },
    {
      "inputs": [],
      "name": "getRound",
      "outputs": [
        {
          "internalType": "uint8",
          "name": "",
          "type": "uint8"
        }
      ],
      "stateMutability": "view",
      "type": "function",
      "constant": true
    },
    {
      "inputs": [],
      "name": "getNumWorkers",
      "outputs": [
        {
          "internalType": "uint8",
          "name": "",
          "type": "uint8"
        }
      ],
      "stateMutability": "view",
      "type": "function",
      "constant": true
    },
    {
      "inputs": [],
      "name": "getDeposit",
      "outputs": [
        {
          "internalType": "uint256",
          "name": "",
          "type": "uint256"
        }
      ],
      "stateMutability": "view",
      "type": "function",
      "constant": true
    },
    {
      "inputs": [],
      "name": "getRequester",
      "outputs": [
        {
          "internalType": "address",
          "name": "",
          "type": "address"
        }
      ],
      "stateMutability": "view",
      "type": "function",
      "constant": true
    },
    {
      "inputs": [],
      "name": "getModelURI",
      "outputs": [
        {
          "internalType": "string",
          "name": "",
          "type": "string"
        }
      ],
      "stateMutability": "view",
      "type": "function",
      "constant": true
    },
    {
      "inputs": [],
      "name": "joinTask",
      "outputs": [
        {
          "internalType": "string",
          "name": "",
          "type": "string"
        }
      ],
      "stateMutability": "payable",
      "type": "function",
      "payable": true
    },
    {
      "inputs": [],
      "name": "removeWorker",
      "outputs": [],
      "stateMutability": "nonpayable",
      "type": "function"
    },
    {
      "inputs": [
        {
          "internalType": "address",
          "name": "workerAddress",
          "type": "address"
        }
      ],
      "name": "getDepositEther",
      "outputs": [
        {
          "internalType": "uint256",
          "name": "",
          "type": "uint256"
        }
      ],
      "stateMutability": "view",
      "type": "function",
      "constant": true
    },
    {
      "inputs": [
        {
          "internalType": "address",
          "name": "workerAddress",
          "type": "address"
        }
      ],
      "name": "penalizeWorker",
      "outputs": [],
      "stateMutability": "payable",
      "type": "function",
      "payable": true
    },
    {
      "inputs": [
        {
          "internalType": "address",
          "name": "workerAddress",
          "type": "address"
        }
      ],
      "name": "refundWorker",
      "outputs": [],
      "stateMutability": "payable",
      "type": "function",
      "payable": true
    },
    {
      "inputs": [
        {
          "internalType": "address[]",
          "name": "_workers",
          "type": "address[]"
        },
        {
          "internalType": "uint16[]",
          "name": "_scores",
          "type": "uint16[]"
        }
      ],
      "name": "submitScore",
      "outputs": [],
      "stateMutability": "nonpayable",
      "type": "function"
    },
    {
      "inputs": [],
      "name": "getSubmissionsNumber",
      "outputs": [
        {
          "internalType": "uint8",
          "name": "",
          "type": "uint8"
        }
      ],
      "stateMutability": "view",
      "type": "function",
      "constant": true
    },
    {
      "inputs": [],
      "name": "getSubmissions",
      "outputs": [
        {
          "components": [
            {
              "internalType": "address",
              "name": "workerAddress",
              "type": "address"
            },
            {
              "internalType": "address[]",
              "name": "addressScored",
              "type": "address[]"
            },
            {
              "internalType": "uint16[]",
              "name": "scores",
              "type": "uint16[]"
            }
          ],
          "internalType": "struct FLTask.SubmittedEval[]",
          "name": "",
          "type": "tuple[]"
        }
      ],
      "stateMutability": "view",
      "type": "function",
      "constant": true
    },
    {
      "inputs": [
        {
          "internalType": "address[]",
          "name": "_topK",
          "type": "address[]"
        }
      ],
      "name": "submitRoundTopK",
      "outputs": [],
      "stateMutability": "nonpayable",
      "type": "function"
    },
    {
      "inputs": [],
      "name": "distributeRewards",
      "outputs": [],
      "stateMutability": "payable",
      "type": "function",
      "payable": true
    }
  ],
  "bytecode": "0x60a060405260008060026101000a81548160ff021916908360ff1602179055503480156200002c57600080fd5b503373ffffffffffffffffffffffffffffffffffffffff1660808173ffffffffffffffffffffffffffffffffffffffff16815250506000600760006101000a81548160ff021916908360048111156200008a576200008962000095565b5b0217905550620000c4565b7f4e487b7100000000000000000000000000000000000000000000000000000000600052602160045260246000fd5b6080516131c662000142600039600081816105e2015281816106b90152818161080c0152818161094601528181610b7c01528181610eb3015281816111810152818161133d015281816115f10152818161171d01528181611788015281816118ea015281816119d601528181611af70152611b1d01526131c66000f3fe60806040526004361061011f5760003560e01c80639f8743f7116100a0578063c399ec8811610064578063c399ec8814610310578063c7e0758f1461033b578063cd1e071714610366578063d5964a4814610391578063e92c4cd5146103ba5761011f565b80639f8743f714610269578063a59aa9de14610294578063abde88d5146102b2578063b61e96a5146102ce578063bbbb77fb146102f95761011f565b80634b68d1a1116100e75780634b68d1a1146101c257806354f6aa20146101de5780636f4a2cd014610209578063852649c514610213578063965076a81461023e5761011f565b80630961bc68146101245780631601e7951461014d5780632563d4b7146101785780632f89c48a1461018f57806347e40553146101ab575b600080fd5b34801561013057600080fd5b5061014b600480360381019061014691906122aa565b6103f7565b005b34801561015957600080fd5b506101626105cd565b60405161016f9190612399565b60405180910390f35b34801561018457600080fd5b5061018d6105e0565b005b6101a960048036038101906101a491906124a2565b6106b7565b005b3480156101b757600080fd5b506101c061080a565b005b6101dc60048036038101906101d791906124fe565b610944565b005b3480156101ea57600080fd5b506101f3610b78565b60405161020091906127c0565b60405180910390f35b610211610eb1565b005b34801561021f57600080fd5b5061022861117d565b60405161023591906127f1565b60405180910390f35b34801561024a57600080fd5b50610253611218565b60405161026091906127f1565b60405180910390f35b34801561027557600080fd5b5061027e61122e565b60405161028b91906127f1565b60405180910390f35b61029c6112a9565b6040516102a99190612894565b60405180910390f35b6102cc60048036038101906102c791906124fe565b6115ef565b005b3480156102da57600080fd5b506102e3611786565b6040516102f091906128c5565b60405180910390f35b34801561030557600080fd5b5061030e6117aa565b005b34801561031c57600080fd5b506103256118e6565b60405161033291906128f9565b60405180910390f35b34801561034757600080fd5b5061035061197c565b60405161035d9190612894565b60405180910390f35b34801561037257600080fd5b5061037b611af3565b60405161038891906128c5565b60405180910390f35b34801561039d57600080fd5b506103b860048036038101906103b39190612914565b611b1b565b005b3480156103c657600080fd5b506103e160048036038101906103dc91906124fe565b611bc3565b6040516103ee91906128f9565b60405180910390f35b600160003373ffffffffffffffffffffffffffffffffffffffff1673ffffffffffffffffffffffffffffffffffffffff16815260200190815260200160002060000160009054906101000a900460ff16610486576040517f08c379a000000000000000000000000000000000000000000000000000000000815260040161047d906129cf565b60405180910390fd5b6002600760009054906101000a900460ff1660048111156104aa576104a9612322565b5b146104ea576040517f08c379a00000000000000000000000000000000000000000000000000000000081526004016104e190612a3b565b60405180910390fd5b600360405180606001604052803373ffffffffffffffffffffffffffffffffffffffff16815260200184815260200183815250908060018154018082558091505060019003906000526020600020906003020160009091909190915060008201518160000160006101000a81548173ffffffffffffffffffffffffffffffffffffffff021916908373ffffffffffffffffffffffffffffffffffffffff16021790555060208201518160010190805190602001906105a9929190611d09565b5060408201518160020190805190602001906105c6929190611d93565b5050505050565b600760009054906101000a900460ff1681565b7f000000000000000000000000000000000000000000000000000000000000000073ffffffffffffffffffffffffffffffffffffffff163373ffffffffffffffffffffffffffffffffffffffff161461066e576040517f08c379a000000000000000000000000000000000000000000000000000000000815260040161066590612acd565b60405180910390fd5b6002600760006101000a81548160ff0219169083600481111561069457610693612322565b5b02179055506001600060016101000a81548160ff021916908360ff160217905550565b7f000000000000000000000000000000000000000000000000000000000000000073ffffffffffffffffffffffffffffffffffffffff163373ffffffffffffffffffffffffffffffffffffffff1614610745576040517f08c379a000000000000000000000000000000000000000000000000000000000815260040161073c90612acd565b60405180910390fd5b60003403610788576040517f08c379a000000000000000000000000000000000000000000000000000000000815260040161077f90612b5f565b60405180910390fd5b816005908051906020019061079e929190611e3d565b50806000806101000a81548160ff021916908360ff16021790555060008054906101000a900460ff1660ff16346107d59190612bdd565b6006819055506001600760006101000a81548160ff0219169083600481111561080157610800612322565b5b02179055505050565b7f000000000000000000000000000000000000000000000000000000000000000073ffffffffffffffffffffffffffffffffffffffff163373ffffffffffffffffffffffffffffffffffffffff1614610898576040517f08c379a000000000000000000000000000000000000000000000000000000000815260040161088f90612acd565b60405180910390fd5b6002600760009054906101000a900460ff1660048111156108bc576108bb612322565b5b146108fc576040517f08c379a00000000000000000000000000000000000000000000000000000000081526004016108f390612a3b565b60405180910390fd5b6003600061090a9190611ec3565b6000600181819054906101000a900460ff168092919061092990612c0e565b91906101000a81548160ff021916908360ff16021790555050565b7f000000000000000000000000000000000000000000000000000000000000000073ffffffffffffffffffffffffffffffffffffffff163373ffffffffffffffffffffffffffffffffffffffff16146109d2576040517f08c379a00000000000000000000000000000000000000000000000000000000081526004016109c990612acd565b60405180910390fd5b600160008273ffffffffffffffffffffffffffffffffffffffff1673ffffffffffffffffffffffffffffffffffffffff16815260200190815260200160002060000160009054906101000a900460ff16610a61576040517f08c379a0000000000000000000000000000000000000000000000000000000008152600401610a5890612c83565b60405180910390fd5b6000600260008373ffffffffffffffffffffffffffffffffffffffff1673ffffffffffffffffffffffffffffffffffffffff16815260200190815260200160002054905060008111610ae8576040517f08c379a0000000000000000000000000000000000000000000000000000000008152600401610adf90612cef565b60405180910390fd5b6000600260008473ffffffffffffffffffffffffffffffffffffffff1673ffffffffffffffffffffffffffffffffffffffff168152602001908152602001600020819055508173ffffffffffffffffffffffffffffffffffffffff166108fc829081150290604051600060405180830381858888f19350505050158015610b73573d6000803e3d6000fd5b505050565b60607f000000000000000000000000000000000000000000000000000000000000000073ffffffffffffffffffffffffffffffffffffffff163373ffffffffffffffffffffffffffffffffffffffff1614610c08576040517f08c379a0000000000000000000000000000000000000000000000000000000008152600401610bff90612acd565b60405180910390fd5b6002600760009054906101000a900460ff166004811115610c2c57610c2b612322565b5b14610c6c576040517f08c379a0000000000000000000000000000000000000000000000000000000008152600401610c6390612a3b565b60405180910390fd5b6000610c7661117d565b60ff1667ffffffffffffffff811115610c9257610c9161200c565b5b604051908082528060200260200182016040528015610ccb57816020015b610cb8611ee7565b815260200190600190039081610cb05790505b50905060005b6003805490508160ff161015610ea95760038160ff1681548110610cf857610cf7612d0f565b5b90600052602060002090600302016040518060600160405290816000820160009054906101000a900473ffffffffffffffffffffffffffffffffffffffff1673ffffffffffffffffffffffffffffffffffffffff1673ffffffffffffffffffffffffffffffffffffffff16815260200160018201805480602002602001604051908101604052809291908181526020018280548015610dec57602002820191906000526020600020905b8160009054906101000a900473ffffffffffffffffffffffffffffffffffffffff1673ffffffffffffffffffffffffffffffffffffffff1681526020019060010190808311610da2575b5050505050815260200160028201805480602002602001604051908101604052809291908181526020018280548015610e6c57602002820191906000526020600020906000905b82829054906101000a900461ffff1661ffff1681526020019060020190602082600101049283019260010382029150808411610e335790505b505050505081525050828260ff1681518110610e8b57610e8a612d0f565b5b60200260200101819052508080610ea190612c0e565b915050610cd1565b508091505090565b7f000000000000000000000000000000000000000000000000000000000000000073ffffffffffffffffffffffffffffffffffffffff163373ffffffffffffffffffffffffffffffffffffffff1614610f3f576040517f08c379a0000000000000000000000000000000000000000000000000000000008152600401610f3690612acd565b60405180910390fd5b600060065490506000600480549050905060005b600382610f609190612d3e565b60ff168160ff1610156110235760048160ff1681548110610f8457610f83612d0f565b5b9060005260206000200160009054906101000a900473ffffffffffffffffffffffffffffffffffffffff1673ffffffffffffffffffffffffffffffffffffffff166108fc600285610fd59190612bdd565b9081150290604051600060405180830381858888f19350505050158015611000573d6000803e3d6000fd5b5060028361100e9190612bdd565b9250808061101b90612c0e565b915050610f53565b6002836110309190612bdd565b925060008260ff16846110439190612bdd565b905060048260ff168154811061105c5761105b612d0f565b5b9060005260206000200160009054906101000a900473ffffffffffffffffffffffffffffffffffffffff1673ffffffffffffffffffffffffffffffffffffffff166108fc82866110ac9190612d72565b9081150290604051600060405180830381858888f193505050501580156110d7573d6000803e3d6000fd5b5060046001836110e79190612dc8565b60ff16815481106110fb576110fa612d0f565b5b9060005260206000200160009054906101000a900473ffffffffffffffffffffffffffffffffffffffff1673ffffffffffffffffffffffffffffffffffffffff166108fc828661114b9190612dff565b9081150290604051600060405180830381858888f19350505050158015611176573d6000803e3d6000fd5b5050505050565b60007f000000000000000000000000000000000000000000000000000000000000000073ffffffffffffffffffffffffffffffffffffffff163373ffffffffffffffffffffffffffffffffffffffff161461120d576040517f08c379a000000000000000000000000000000000000000000000000000000000815260040161120490612acd565b60405180910390fd5b600380549050905090565b60008060029054906101000a900460ff16905090565b60006002600760009054906101000a900460ff16600481111561125457611253612322565b5b14611294576040517f08c379a000000000000000000000000000000000000000000000000000000000815260040161128b90612a3b565b60405180910390fd5b600060019054906101000a900460ff16905090565b6060600160003373ffffffffffffffffffffffffffffffffffffffff1673ffffffffffffffffffffffffffffffffffffffff16815260200190815260200160002060000160009054906101000a900460ff161561133b576040517f08c379a000000000000000000000000000000000000000000000000000000000815260040161133290612e7f565b60405180910390fd5b7f000000000000000000000000000000000000000000000000000000000000000073ffffffffffffffffffffffffffffffffffffffff163373ffffffffffffffffffffffffffffffffffffffff16036113c9576040517f08c379a00000000000000000000000000000000000000000000000000000000081526004016113c090612eeb565b60405180910390fd5b67016345785d8a00003414611413576040517f08c379a000000000000000000000000000000000000000000000000000000000815260040161140a90612f7d565b60405180910390fd5b60018060003373ffffffffffffffffffffffffffffffffffffffff1673ffffffffffffffffffffffffffffffffffffffff16815260200190815260200160002060000160006101000a81548160ff0219169083151502179055506001600060029054906101000a900460ff166114899190612dc8565b600160003373ffffffffffffffffffffffffffffffffffffffff1673ffffffffffffffffffffffffffffffffffffffff16815260200190815260200160002060000160016101000a81548160ff021916908360ff16021790555034600260003373ffffffffffffffffffffffffffffffffffffffff1673ffffffffffffffffffffffffffffffffffffffff168152602001908152602001600020819055506000600281819054906101000a900460ff168092919061154690612c0e565b91906101000a81548160ff021916908360ff160217905550506005805461156c90612fcc565b80601f016020809104026020016040519081016040528092919081815260200182805461159890612fcc565b80156115e55780601f106115ba576101008083540402835291602001916115e5565b820191906000526020600020905b8154815290600101906020018083116115c857829003601f168201915b5050505050905090565b7f000000000000000000000000000000000000000000000000000000000000000073ffffffffffffffffffffffffffffffffffffffff163373ffffffffffffffffffffffffffffffffffffffff161461167d576040517f08c379a000000000000000000000000000000000000000000000000000000000815260040161167490612acd565b60405180910390fd5b6000349050478111156116c5576040517f08c379a00000000000000000000000000000000000000000000000000000000081526004016116bc90613049565b60405180910390fd5b80600260008473ffffffffffffffffffffffffffffffffffffffff1673ffffffffffffffffffffffffffffffffffffffff16815260200190815260200160002060008282546117149190612dff565b925050819055507f000000000000000000000000000000000000000000000000000000000000000073ffffffffffffffffffffffffffffffffffffffff166108fc829081150290604051600060405180830381858888f19350505050158015611781573d6000803e3d6000fd5b505050565b7f000000000000000000000000000000000000000000000000000000000000000081565b600160003373ffffffffffffffffffffffffffffffffffffffff1673ffffffffffffffffffffffffffffffffffffffff16815260200190815260200160002060000160009054906101000a900460ff16611839576040517f08c379a000000000000000000000000000000000000000000000000000000000815260040161183090612c83565b60405180910390fd5b611842336115ef565b600160003373ffffffffffffffffffffffffffffffffffffffff1673ffffffffffffffffffffffffffffffffffffffff168152602001908152602001600020600080820160006101000a81549060ff02191690556000820160016101000a81549060ff021916905550506000600281819054906101000a900460ff16809291906118cb90613069565b91906101000a81548160ff021916908360ff16021790555050565b60007f000000000000000000000000000000000000000000000000000000000000000073ffffffffffffffffffffffffffffffffffffffff163373ffffffffffffffffffffffffffffffffffffffff1614611976576040517f08c379a000000000000000000000000000000000000000000000000000000000815260040161196d90612acd565b60405180910390fd5b47905090565b6060600160003373ffffffffffffffffffffffffffffffffffffffff1673ffffffffffffffffffffffffffffffffffffffff16815260200190815260200160002060000160009054906101000a900460ff1680611a2457507f000000000000000000000000000000000000000000000000000000000000000073ffffffffffffffffffffffffffffffffffffffff163373ffffffffffffffffffffffffffffffffffffffff16145b611a63576040517f08c379a0000000000000000000000000000000000000000000000000000000008152600401611a5a90613104565b60405180910390fd5b60058054611a7090612fcc565b80601f0160208091040260200160405190810160405280929190818152602001828054611a9c90612fcc565b8015611ae95780601f10611abe57610100808354040283529160200191611ae9565b820191906000526020600020905b815481529060010190602001808311611acc57829003601f168201915b5050505050905090565b60007f0000000000000000000000000000000000000000000000000000000000000000905090565b7f000000000000000000000000000000000000000000000000000000000000000073ffffffffffffffffffffffffffffffffffffffff163373ffffffffffffffffffffffffffffffffffffffff1614611ba9576040517f08c379a0000000000000000000000000000000000000000000000000000000008152600401611ba090612acd565b60405180910390fd5b8060049080519060200190611bbf929190611d09565b5050565b60008073ffffffffffffffffffffffffffffffffffffffff168273ffffffffffffffffffffffffffffffffffffffff1603611c33576040517f08c379a0000000000000000000000000000000000000000000000000000000008152600401611c2a90613170565b60405180910390fd5b600160008373ffffffffffffffffffffffffffffffffffffffff1673ffffffffffffffffffffffffffffffffffffffff16815260200190815260200160002060000160009054906101000a900460ff16611cc2576040517f08c379a0000000000000000000000000000000000000000000000000000000008152600401611cb990612c83565b60405180910390fd5b600260008373ffffffffffffffffffffffffffffffffffffffff1673ffffffffffffffffffffffffffffffffffffffff168152602001908152602001600020549050919050565b828054828255906000526020600020908101928215611d82579160200282015b82811115611d815782518260006101000a81548173ffffffffffffffffffffffffffffffffffffffff021916908373ffffffffffffffffffffffffffffffffffffffff16021790555091602001919060010190611d29565b5b509050611d8f9190611f1e565b5090565b82805482825590600052602060002090600f01601090048101928215611e2c5791602002820160005b83821115611dfc57835183826101000a81548161ffff021916908361ffff1602179055509260200192600201602081600101049283019260010302611dbc565b8015611e2a5782816101000a81549061ffff0219169055600201602081600101049283019260010302611dfc565b505b509050611e399190611f1e565b5090565b828054611e4990612fcc565b90600052602060002090601f016020900481019282611e6b5760008555611eb2565b82601f10611e8457805160ff1916838001178555611eb2565b82800160010185558215611eb2579182015b82811115611eb1578251825591602001919060010190611e96565b5b509050611ebf9190611f1e565b5090565b5080546000825560030290600052602060002090810190611ee49190611f3b565b50565b6040518060600160405280600073ffffffffffffffffffffffffffffffffffffffff16815260200160608152602001606081525090565b5b80821115611f37576000816000905550600101611f1f565b5090565b5b80821115611f9557600080820160006101000a81549073ffffffffffffffffffffffffffffffffffffffff0219169055600182016000611f7c9190611f99565b600282016000611f8c9190611fba565b50600301611f3c565b5090565b5080546000825590600052602060002090810190611fb79190611f1e565b50565b50805460008255600f016010900490600052602060002090810190611fdf9190611f1e565b50565b6000604051905090565b600080fd5b600080fd5b600080fd5b6000601f19601f8301169050919050565b7f4e487b7100000000000000000000000000000000000000000000000000000000600052604160045260246000fd5b61204482611ffb565b810181811067ffffffffffffffff821117156120635761206261200c565b5b80604052505050565b6000612076611fe2565b9050612082828261203b565b919050565b600067ffffffffffffffff8211156120a2576120a161200c565b5b602082029050602081019050919050565b600080fd5b600073ffffffffffffffffffffffffffffffffffffffff82169050919050565b60006120e3826120b8565b9050919050565b6120f3816120d8565b81146120fe57600080fd5b50565b600081359050612110816120ea565b92915050565b600061212961212484612087565b61206c565b9050808382526020820190506020840283018581111561214c5761214b6120b3565b5b835b8181101561217557806121618882612101565b84526020840193505060208101905061214e565b5050509392505050565b600082601f83011261219457612193611ff6565b5b81356121a4848260208601612116565b91505092915050565b600067ffffffffffffffff8211156121c8576121c761200c565b5b602082029050602081019050919050565b600061ffff82169050919050565b6121f0816121d9565b81146121fb57600080fd5b50565b60008135905061220d816121e7565b92915050565b6000612226612221846121ad565b61206c565b90508083825260208201905060208402830185811115612249576122486120b3565b5b835b81811015612272578061225e88826121fe565b84526020840193505060208101905061224b565b5050509392505050565b600082601f83011261229157612290611ff6565b5b81356122a1848260208601612213565b91505092915050565b600080604083850312156122c1576122c0611fec565b5b600083013567ffffffffffffffff8111156122df576122de611ff1565b5b6122eb8582860161217f565b925050602083013567ffffffffffffffff81111561230c5761230b611ff1565b5b6123188582860161227c565b9150509250929050565b7f4e487b7100000000000000000000000000000000000000000000000000000000600052602160045260246000fd5b6005811061236257612361612322565b5b50565b600081905061237382612351565b919050565b600061238382612365565b9050919050565b61239381612378565b82525050565b60006020820190506123ae600083018461238a565b92915050565b600080fd5b600067ffffffffffffffff8211156123d4576123d361200c565b5b6123dd82611ffb565b9050602081019050919050565b82818337600083830152505050565b600061240c612407846123b9565b61206c565b905082815260208101848484011115612428576124276123b4565b5b6124338482856123ea565b509392505050565b600082601f8301126124505761244f611ff6565b5b81356124608482602086016123f9565b91505092915050565b600060ff82169050919050565b61247f81612469565b811461248a57600080fd5b50565b60008135905061249c81612476565b92915050565b600080604083850312156124b9576124b8611fec565b5b600083013567ffffffffffffffff8111156124d7576124d6611ff1565b5b6124e38582860161243b565b92505060206124f48582860161248d565b9150509250929050565b60006020828403121561251457612513611fec565b5b600061252284828501612101565b91505092915050565b600081519050919050565b600082825260208201905092915050565b6000819050602082019050919050565b612560816120d8565b82525050565b600081519050919050565b600082825260208201905092915050565b6000819050602082019050919050565b600061259e8383612557565b60208301905092915050565b6000602082019050919050565b60006125c282612566565b6125cc8185612571565b93506125d783612582565b8060005b838110156126085781516125ef8882612592565b97506125fa836125aa565b9250506001810190506125db565b5085935050505092915050565b600081519050919050565b600082825260208201905092915050565b6000819050602082019050919050565b61264a816121d9565b82525050565b600061265c8383612641565b60208301905092915050565b6000602082019050919050565b600061268082612615565b61268a8185612620565b935061269583612631565b8060005b838110156126c65781516126ad8882612650565b97506126b883612668565b925050600181019050612699565b5085935050505092915050565b60006060830160008301516126eb6000860182612557565b506020830151848203602086015261270382826125b7565b9150506040830151848203604086015261271d8282612675565b9150508091505092915050565b600061273683836126d3565b905092915050565b6000602082019050919050565b60006127568261252b565b6127608185612536565b93508360208202850161277285612547565b8060005b858110156127ae578484038952815161278f858261272a565b945061279a8361273e565b925060208a01995050600181019050612776565b50829750879550505050505092915050565b600060208201905081810360008301526127da818461274b565b905092915050565b6127eb81612469565b82525050565b600060208201905061280660008301846127e2565b92915050565b600081519050919050565b600082825260208201905092915050565b60005b8381101561284657808201518184015260208101905061282b565b83811115612855576000848401525b50505050565b60006128668261280c565b6128708185612817565b9350612880818560208601612828565b61288981611ffb565b840191505092915050565b600060208201905081810360008301526128ae818461285b565b905092915050565b6128bf816120d8565b82525050565b60006020820190506128da60008301846128b6565b92915050565b6000819050919050565b6128f3816128e0565b82525050565b600060208201905061290e60008301846128ea565b92915050565b60006020828403121561292a57612929611fec565b5b600082013567ffffffffffffffff81111561294857612947611ff1565b5b6129548482850161217f565b91505092915050565b7f54686973206f7065726174696f6e2063616e20626520706572666f726d65642060008201527f6f6e6c7920627920746865207461736b20776f726b6572730000000000000000602082015250565b60006129b9603883612817565b91506129c48261295d565b604082019050919050565b600060208201905081810360008301526129e8816129ac565b9050919050565b7f5461736b206e6f742072756e6e696e6700000000000000000000000000000000600082015250565b6000612a25601083612817565b9150612a30826129ef565b602082019050919050565b60006020820190508181036000830152612a5481612a18565b9050919050565b7f54686973206f7065726174696f6e2063616e20626520706572666f726d65642060008201527f6f6e6c7920627920746865207461736b20726571756573746572000000000000602082015250565b6000612ab7603a83612817565b9150612ac282612a5b565b604082019050919050565b60006020820190508181036000830152612ae681612aaa565b9050919050565b7f43616e6e6f7420696e697469616c697a6520636f6e747261637420776974686f60008201527f7574206465706f73697400000000000000000000000000000000000000000000602082015250565b6000612b49602a83612817565b9150612b5482612aed565b604082019050919050565b60006020820190508181036000830152612b7881612b3c565b9050919050565b7f4e487b7100000000000000000000000000000000000000000000000000000000600052601260045260246000fd5b7f4e487b7100000000000000000000000000000000000000000000000000000000600052601160045260246000fd5b6000612be8826128e0565b9150612bf3836128e0565b925082612c0357612c02612b7f565b5b828204905092915050565b6000612c1982612469565b915060ff8203612c2c57612c2b612bae565b5b600182019050919050565b7f576f726b6572206973206e6f7420726567697374657265640000000000000000600082015250565b6000612c6d601883612817565b9150612c7882612c37565b602082019050919050565b60006020820190508181036000830152612c9c81612c60565b9050919050565b7f4e6f206465706f73697420617661696c61626c6520666f7220726566756e6400600082015250565b6000612cd9601f83612817565b9150612ce482612ca3565b602082019050919050565b60006020820190508181036000830152612d0881612ccc565b9050919050565b7f4e487b7100000000000000000000000000000000000000000000000000000000600052603260045260246000fd5b6000612d4982612469565b9150612d5483612469565b925082821015612d6757612d66612bae565b5b828203905092915050565b6000612d7d826128e0565b9150612d88836128e0565b9250827fffffffffffffffffffffffffffffffffffffffffffffffffffffffffffffffff03821115612dbd57612dbc612bae565b5b828201905092915050565b6000612dd382612469565b9150612dde83612469565b92508260ff03821115612df457612df3612bae565b5b828201905092915050565b6000612e0a826128e0565b9150612e15836128e0565b925082821015612e2857612e27612bae565b5b828203905092915050565b7f576f726b657220697320616c7265616479207265676973746572656400000000600082015250565b6000612e69601c83612817565b9150612e7482612e33565b602082019050919050565b60006020820190508181036000830152612e9881612e5c565b9050919050565b7f5265717565737465722063616e6e6f74206265206120776f726b657221000000600082015250565b6000612ed5601d83612817565b9150612ee082612e9f565b602082019050919050565b60006020820190508181036000830152612f0481612ec8565b9050919050565b7f576f726b6572206d757374206465706f73697420352065746865727320746f2060008201527f6a6f696e20746865207461736b00000000000000000000000000000000000000602082015250565b6000612f67602d83612817565b9150612f7282612f0b565b604082019050919050565b60006020820190508181036000830152612f9681612f5a565b9050919050565b7f4e487b7100000000000000000000000000000000000000000000000000000000600052602260045260246000fd5b60006002820490506001821680612fe457607f821691505b602082108103612ff757612ff6612f9d565b5b50919050565b7f496e73756666696369656e7420636f6e74726163742062616c616e6365000000600082015250565b6000613033601d83612817565b915061303e82612ffd565b602082019050919050565b6000602082019050818103600083015261306281613026565b9050919050565b600061307482612469565b91506000820361308757613086612bae565b5b600182039050919050565b7f596f7520646f206e6f742068617665207468652072696768747320746f20706560008201527f72666f726d2074686973206f7065726174696f6e000000000000000000000000602082015250565b60006130ee603483612817565b91506130f982613092565b604082019050919050565b6000602082019050818103600083015261311d816130e1565b9050919050565b7f496e76616c696420776f726b6572206164647265737300000000000000000000600082015250565b600061315a601683612817565b915061316582613124565b602082019050919050565b600060208201905081810360008301526131898161314d565b905091905056fea26469706673582212203ce31dc8a358f056956052425f0a02b0348c3d07de869a409db89e40cdd8e40b64736f6c634300080d0033",
  "immutableReferences": {
    "46": [
      {
        "length": 32,
        "start": 1506
      },
      {
        "length": 32,
        "start": 1721
      },
      {
        "length": 32,
        "start": 2060
      },
      {
        "length": 32,
        "start": 2374
      },
      {
        "length": 32,
        "start": 2940
      },
      {
        "length": 32,
        "start": 3763
      },
      {
        "length": 32,
        "start": 4481
      },
      {
        "length": 32,
        "start": 4925
      },
      {
        "length": 32,
        "start": 5617
      },
      {
        "length": 32,
        "start": 5917
      },
      {
        "length": 32,
        "start": 6024
      },
      {
        "length": 32,
        "start": 6378
      },
      {
        "length": 32,
        "start": 6614
      },
      {
        "length": 32,
        "start": 6903
      },
      {
        "length": 32,
        "start": 6941
      }
    ]
  },
  "source": "// SPDX-License-Identifier: MIT\r\npragma solidity >=0.4.22 <0.9.0;\r\n\r\n// Smart contract representing a FL task\r\ncontract FLTask {\r\n    // Representing the status of the task\r\n    // Pending: invalid status, created when the smart contract is deployed\r\n    // Initialized: the task is ready to be joined by workers\r\n    // Running, Completed, Canceled: self-explanatory\r\n    enum TaskStatus {    \r\n        Pending, \r\n        Initialized, \r\n        Running,\r\n        Completed,\r\n        Canceled\r\n    }\r\n\r\n    //Struct representing a wokrer of the task, still under development\r\n    //the boolean field is used to verify that a worker cannot join the task twice\r\n    struct Worker {\r\n        bool registered;\r\n        uint8 workerId;\r\n        \r\n    }\r\n\r\n    //struct representing the evaluation submitted by a worker at the end of the evaluation phase\r\n    struct SubmittedEval {\r\n        address workerAddress;\r\n        address[] addressScored;\r\n        uint16[] scores;\r\n        //uint16 score; //only for testing\r\n        \r\n    }\r\n\r\n    \r\n    uint8 private numRounds; //number of rounds of the fl task\r\n    uint8 private round; //number of the actual round\r\n    uint8 private numWorkers = 0;\r\n    mapping(address => Worker) private workers; //to each worker address is associated his worker object\r\n    mapping(address => uint256) private workerDeposits;\r\n\r\n    SubmittedEval[] private roundScores; //to each round are associated the submitted evaluations\r\n    address[] private roundTopK;\r\n    address public immutable requester;\r\n    string private modelURI; //URI of the model pushed by the requester at initialization phase\r\n    uint256 roundMoney;\r\n    TaskStatus public taskStatus;\r\n    \r\n\r\n    // Penalty percentage to deduct from the worker's deposit (e.g., 10%)\r\n    uint256 private constant PENALTY_PERCENTAGE = 10;\r\n\r\n    constructor() {\r\n        requester = msg.sender;\r\n        taskStatus = TaskStatus.Pending;\r\n    }\r\n\r\n    // function modifier allowing the function to be called only by the requester\r\n    modifier onlyRequester() {\r\n        require(msg.sender == requester, \"This operation can be performed only by the task requester\");\r\n        _;\r\n    }\r\n\r\n    // function modifier allowing the function to be called only by the workers\r\n    modifier onlyWorker() {\r\n        require(workers[msg.sender].registered, \"This operation can be performed only by the task workers\");\r\n        _;\r\n    }\r\n\r\n    // function modifier allowing the function to be called only by requester and workers\r\n    modifier restrictAccess() {\r\n        require((workers[msg.sender].registered || msg.sender == requester), \"You do not have the rights to perform this operation\");\r\n        _;\r\n    }\r\n\r\n    // function modifier allowing the function to be called only if the task has been initialized\r\n    modifier taskInitialized(){\r\n        require(uint(taskStatus) == 1, \"Task not initialized\");\r\n        _;\r\n    }\r\n\r\n    // function modifier allowing the function to be called only if the task has started\r\n    modifier taskRunning(){\r\n        require(uint(taskStatus) == 2, \"Task not running\");\r\n        _;\r\n    }\r\n\r\n    // function called to initialize the task, mandatory to put a deposit in the smart contract\r\n    function initializeTask(string memory _modelURI, uint8 _numRounds) public payable onlyRequester{\r\n        require(msg.value != 0, \"Cannot initialize contract without deposit\");\r\n        modelURI = _modelURI;\r\n        numRounds = _numRounds;\r\n        roundMoney = msg.value / numRounds;\r\n        taskStatus = TaskStatus.Initialized;\r\n    }\r\n\r\n    // start the task\r\n    function startTask() public onlyRequester {\r\n        taskStatus = TaskStatus.Running;\r\n        round = 1;\r\n    }\r\n\r\n    // advance round\r\n    function nextRound() public onlyRequester taskRunning {\r\n        delete roundScores;\r\n        round++;\r\n    }\r\n\r\n    // get the number of actual round\r\n    function getRound() public taskRunning view returns (uint8){\r\n        return round;\r\n    }\r\n\r\n    // get the number of workers\r\n    function getNumWorkers() public view returns (uint8){\r\n        return numWorkers;\r\n    }\r\n\r\n    // get the amount of money deposited in the smart contract\r\n    function getDeposit() public onlyRequester view returns (uint) {\r\n        return address(this).balance;\r\n    }\r\n\r\n    // get the address of the requester\r\n    function getRequester() public view returns (address){\r\n        return requester;\r\n    }\r\n\r\n    // get the URI of the model\r\n    function getModelURI() public view restrictAccess returns (string memory){\r\n        return modelURI;\r\n    }\r\n\r\n    function joinTask() public payable returns (string memory) {\r\n        require(!workers[msg.sender].registered, \"Worker is already registered\");\r\n        require(msg.sender != requester, \"Requester cannot be a worker!\");\r\n        require(msg.value == 0.1 ether, \"Worker must deposit 5 ethers to join the task\");\r\n\r\n        workers[msg.sender].registered = true;\r\n        workers[msg.sender].workerId = numWorkers + 1;\r\n        workerDeposits[msg.sender] = msg.value;\r\n        numWorkers++;\r\n        return modelURI;\r\n    }\r\n\r\n\r\n\r\n  \r\n    function removeWorker() public {\r\n        require(workers[msg.sender].registered, \"Worker is not registered\");\r\n        penalizeWorker(msg.sender);\r\n        delete workers[msg.sender];\r\n        numWorkers--;\r\n    }\r\n\r\n    // Get the deposit amount of a worker\r\n    function getDepositEther(address workerAddress) public view returns (uint256) {\r\n        require(workerAddress != address(0), \"Invalid worker address\");\r\n        require(workers[workerAddress].registered, \"Worker is not registered\");\r\n\r\n        return workerDeposits[workerAddress];\r\n    }\r\n\r\n\r\n    function penalizeWorker(address workerAddress) public payable onlyRequester {\r\n        uint256 penaltyAmount = msg.value;\r\n        require(penaltyAmount <= address(this).balance, \"Insufficient contract balance\");\r\n\r\n        // Deduct the penalty amount from the worker's deposit\r\n        workerDeposits[workerAddress] -= penaltyAmount;\r\n\r\n        // Transfer the penalty amount to the requester's account\r\n        payable(requester).transfer(penaltyAmount);\r\n    }\r\n\r\n\r\n    function refundWorker(address workerAddress) public payable onlyRequester {\r\n        require(workers[workerAddress].registered, \"Worker is not registered\");\r\n\r\n        uint256 refundAmount = workerDeposits[workerAddress];\r\n        require(refundAmount > 0, \"No deposit available for refund\");\r\n\r\n        // Clear the worker's deposit\r\n        workerDeposits[workerAddress] = 0;\r\n\r\n        // Transfer the refund amount back to the worker\r\n        payable(workerAddress).transfer(refundAmount);\r\n    }\r\n\r\n\r\n\r\n    function submitScore(address[] memory _workers, uint16[] memory _scores) public onlyWorker taskRunning {\r\n        roundScores.push(SubmittedEval({\r\n            workerAddress: msg.sender,\r\n            addressScored: _workers,\r\n            scores: _scores\r\n        }));\r\n    }\r\n\r\n    function getSubmissionsNumber() public onlyRequester view returns (uint8){\r\n        return uint8(roundScores.length);\r\n    }\r\n\r\n    function getSubmissions() public onlyRequester taskRunning view returns (SubmittedEval[] memory) {\r\n        SubmittedEval[] memory evals = new SubmittedEval[](getSubmissionsNumber());\r\n        for (uint8 i = 0; i < roundScores.length; i++){\r\n            evals[i] = roundScores[i];\r\n        }\r\n        return evals;\r\n    }\r\n\r\n    function submitRoundTopK(address[] memory _topK) public onlyRequester {\r\n        roundTopK = _topK;\r\n    }\r\n\r\n    function distributeRewards() public onlyRequester payable {\r\n        uint256 amountToDistribute = roundMoney;\r\n        uint8 usersToReward = uint8(roundTopK.length);\r\n        uint8 usersRewarded;\r\n        for(usersRewarded = 0; usersRewarded < usersToReward-3; usersRewarded++){\r\n            payable(roundTopK[usersRewarded]).transfer(amountToDistribute / 2);\r\n            amountToDistribute = amountToDistribute / 2;\r\n        }\r\n        amountToDistribute = amountToDistribute / 2;\r\n        uint256 finalPortion = amountToDistribute / usersToReward;\r\n        payable(roundTopK[usersRewarded]).transfer(amountToDistribute + finalPortion);\r\n        payable(roundTopK[usersRewarded + 1]).transfer(amountToDistribute - finalPortion);\r\n    }\r\n}\r\n",
  "sourcePath": "C:\\Users\\faiza\\Videos\\Bayes\\FL\\client\\contracts\\FLTask.sol",
  "compiler": {
    "name": "solc",
    "version": "0.8.13+commit.abaa5c0e.Emscripten.clang"
  },
  "schemaVersion": "3.4.15",
  "updatedAt": "2023-09-08T19:50:44.462Z",
  "networkType": "ethereum",
  "devdoc": {
    "kind": "dev",
    "methods": {},
    "version": 1
  },
  "userdoc": {
    "kind": "user",
    "methods": {},
    "version": 1
  }
}